{
  "_format": "hh-sol-artifact-1",
  "contractName": "ProductRegistry",
  "sourceName": "contracts/ProductRegistry.sol",
  "abi": [
    {
      "anonymous": false,
      "inputs": [
        {
          "indexed": true,
          "internalType": "uint256",
          "name": "tokenId",
          "type": "uint256"
        },
        {
          "indexed": false,
          "internalType": "string",
          "name": "productId",
          "type": "string"
        },
        {
          "indexed": false,
          "internalType": "address",
          "name": "owner",
          "type": "address"
        }
      ],
      "name": "ProductRegistered",
      "type": "event"
    },
    {
      "anonymous": false,
      "inputs": [
        {
          "indexed": true,
          "internalType": "uint256",
          "name": "tokenId",
          "type": "uint256"
        },
        {
          "indexed": false,
          "internalType": "address",
          "name": "from",
          "type": "address"
        },
        {
          "indexed": false,
          "internalType": "address",
          "name": "to",
          "type": "address"
        }
      ],
      "name": "ProductTransferred",
      "type": "event"
    },
    {
      "inputs": [
        {
          "internalType": "uint256",
          "name": "_tokenId",
          "type": "uint256"
        }
      ],
      "name": "getProductDetails",
      "outputs": [
        {
          "internalType": "string",
          "name": "productId",
          "type": "string"
        },
        {
          "internalType": "string",
          "name": "authenticityHash",
          "type": "string"
        },
        {
          "internalType": "address",
          "name": "manufacturer",
          "type": "address"
        },
        {
          "internalType": "address",
          "name": "currentOwner",
          "type": "address"
        }
      ],
      "stateMutability": "view",
      "type": "function"
    },
    {
      "inputs": [
        {
          "internalType": "uint256",
          "name": "",
          "type": "uint256"
        }
      ],
      "name": "products",
      "outputs": [
        {
          "internalType": "string",
          "name": "productId",
          "type": "string"
        },
        {
          "internalType": "string",
          "name": "authenticityHash",
          "type": "string"
        },
        {
          "internalType": "address",
          "name": "manufacturer",
          "type": "address"
        },
        {
          "internalType": "address",
          "name": "currentOwner",
          "type": "address"
        },
        {
          "internalType": "bool",
          "name": "exists",
          "type": "bool"
        }
      ],
      "stateMutability": "view",
      "type": "function"
    },
    {
      "inputs": [
        {
          "internalType": "string",
          "name": "_productId",
          "type": "string"
        },
        {
          "internalType": "string",
          "name": "_authenticityHash",
          "type": "string"
        }
      ],
      "name": "registerProduct",
      "outputs": [
        {
          "internalType": "uint256",
          "name": "",
          "type": "uint256"
        }
      ],
      "stateMutability": "nonpayable",
      "type": "function"
    },
    {
      "inputs": [],
      "name": "tokenCounter",
      "outputs": [
        {
          "internalType": "uint256",
          "name": "",
          "type": "uint256"
        }
      ],
      "stateMutability": "view",
      "type": "function"
    },
    {
      "inputs": [
        {
          "internalType": "uint256",
          "name": "_tokenId",
          "type": "uint256"
        },
        {
          "internalType": "address",
          "name": "_to",
          "type": "address"
        }
      ],
      "name": "transferProduct",
      "outputs": [],
      "stateMutability": "nonpayable",
      "type": "function"
    },
    {
      "inputs": [
        {
          "internalType": "uint256",
          "name": "_tokenId",
          "type": "uint256"
        }
      ],
      "name": "verifyProduct",
      "outputs": [
        {
          "internalType": "bool",
          "name": "exists",
          "type": "bool"
        },
        {
          "internalType": "string",
          "name": "productId",
          "type": "string"
        },
        {
          "internalType": "address",
          "name": "currentOwner",
          "type": "address"
        }
      ],
      "stateMutability": "view",
      "type": "function"
    }
  ],
  "bytecode": "0x608060405234801561001057600080fd5b50610cc0806100206000396000f3fe608060405234801561001057600080fd5b50600436106100625760003560e01c8063524e8462146100675780636813b53b146100925780637acc0b20146100b55780638fbd0dcf146100d9578063d082e381146100fa578063e43059e514610103575b600080fd5b61007a610075366004610882565b610118565b604051610089939291906108e1565b60405180910390f35b6100a56100a0366004610882565b6102ae565b6040516100899493929190610914565b6100c86100c3366004610882565b6104b2565b60405161008995949392919061095e565b6100ec6100e7366004610a50565b610603565b604051908152602001610089565b6100ec60015481565b610116610111366004610ab4565b61070e565b005b600060606000806000808681526020019081526020016000206040518060a001604052908160008201805461014c90610af0565b80601f016020809104026020016040519081016040528092919081815260200182805461017890610af0565b80156101c55780601f1061019a576101008083540402835291602001916101c5565b820191906000526020600020905b8154815290600101906020018083116101a857829003601f168201915b505050505081526020016001820180546101de90610af0565b80601f016020809104026020016040519081016040528092919081815260200182805461020a90610af0565b80156102575780601f1061022c57610100808354040283529160200191610257565b820191906000526020600020905b81548152906001019060200180831161023a57829003601f168201915b505050918352505060028201546001600160a01b0390811660208301526003909201549182166040820152600160a01b90910460ff1615156060918201526080820151825192909101519097919650945092505050565b60008181526020819052604081206003015460609182918190600160a01b900460ff1661031b5760405162461bcd60e51b8152602060048201526016602482015275141c9bd91d58dd08191bd95cc81b9bdd08195e1a5cdd60521b60448201526064015b60405180910390fd5b600085815260208190526040808220815160a0810190925280548290829061034290610af0565b80601f016020809104026020016040519081016040528092919081815260200182805461036e90610af0565b80156103bb5780601f10610390576101008083540402835291602001916103bb565b820191906000526020600020905b81548152906001019060200180831161039e57829003601f168201915b505050505081526020016001820180546103d490610af0565b80601f016020809104026020016040519081016040528092919081815260200182805461040090610af0565b801561044d5780601f106104225761010080835404028352916020019161044d565b820191906000526020600020905b81548152906001019060200180831161043057829003601f168201915b505050918352505060028201546001600160a01b03908116602080840191909152600390930154908116604080840191909152600160a01b90910460ff1615156060928301528351928401519084015193909101519199909850919650945092505050565b6000602081905290815260409020805481906104cd90610af0565b80601f01602080910402602001604051908101604052809291908181526020018280546104f990610af0565b80156105465780601f1061051b57610100808354040283529160200191610546565b820191906000526020600020905b81548152906001019060200180831161052957829003601f168201915b50505050509080600101805461055b90610af0565b80601f016020809104026020016040519081016040528092919081815260200182805461058790610af0565b80156105d45780601f106105a9576101008083540402835291602001916105d4565b820191906000526020600020905b8154815290600101906020018083116105b757829003601f168201915b50505050600283015460039093015491926001600160a01b03908116929081169150600160a01b900460ff1685565b600180546040805160a081018252858152602080820186905233828401819052606083015260808201949094526000838152938490529083208151819061064a9082610b79565b506020820151600182019061065f9082610b79565b5060408201516002820180546001600160a01b0319166001600160a01b03928316179055606083015160039092018054608090940151929091166001600160a81b031990931692909217600160a01b91151591909102179055600180549060006106c883610c39565b9190505550807fd810998a0248808a33b20218e71759cb2ec1a182b398350ad606d742587c012c85336040516106ff929190610c60565b60405180910390a29392505050565b600082815260208190526040902060030154600160a01b900460ff1661076f5760405162461bcd60e51b8152602060048201526016602482015275141c9bd91d58dd08191bd95cc81b9bdd08195e1a5cdd60521b6044820152606401610312565b6000828152602081905260409020600301546001600160a01b031633146107c85760405162461bcd60e51b815260206004820152600d60248201526c2737ba103a34329037bbb732b960991b6044820152606401610312565b6001600160a01b0381166108105760405162461bcd60e51b815260206004820152600f60248201526e496e76616c6964206164647265737360881b6044820152606401610312565b6000828152602081815260409182902060030180546001600160a01b031981166001600160a01b0386811691821790935584519290911680835292820152909184917fcef86d37ba3dc1d682967cde44d8050488734bf53166725b220b4d2e515e9e93910160405180910390a2505050565b60006020828403121561089457600080fd5b5035919050565b6000815180845260005b818110156108c1576020818501810151868301820152016108a5565b506000602082860101526020601f19601f83011685010191505092915050565b83151581526060602082015260006108fc606083018561089b565b905060018060a01b0383166040830152949350505050565b608081526000610927608083018761089b565b8281036020840152610939818761089b565b6001600160a01b03958616604085015293909416606090920191909152509392505050565b60a08152600061097160a083018861089b565b8281036020840152610983818861089b565b6001600160a01b039687166040850152949095166060830152509015156080909101529392505050565b634e487b7160e01b600052604160045260246000fd5b600082601f8301126109d457600080fd5b813567ffffffffffffffff808211156109ef576109ef6109ad565b604051601f8301601f19908116603f01168101908282118183101715610a1757610a176109ad565b81604052838152866020858801011115610a3057600080fd5b836020870160208301376000602085830101528094505050505092915050565b60008060408385031215610a6357600080fd5b823567ffffffffffffffff80821115610a7b57600080fd5b610a87868387016109c3565b93506020850135915080821115610a9d57600080fd5b50610aaa858286016109c3565b9150509250929050565b60008060408385031215610ac757600080fd5b8235915060208301356001600160a01b0381168114610ae557600080fd5b809150509250929050565b600181811c90821680610b0457607f821691505b602082108103610b2457634e487b7160e01b600052602260045260246000fd5b50919050565b601f821115610b7457600081815260208120601f850160051c81016020861015610b515750805b601f850160051c820191505b81811015610b7057828155600101610b5d565b5050505b505050565b815167ffffffffffffffff811115610b9357610b936109ad565b610ba781610ba18454610af0565b84610b2a565b602080601f831160018114610bdc5760008415610bc45750858301515b600019600386901b1c1916600185901b178555610b70565b600085815260208120601f198616915b82811015610c0b57888601518255948401946001909101908401610bec565b5085821015610c295787850151600019600388901b60f8161c191681555b5050505050600190811b01905550565b600060018201610c5957634e487b7160e01b600052601160045260246000fd5b5060010190565b604081526000610c73604083018561089b565b905060018060a01b0383166020830152939250505056fea26469706673582212203e3746e13d242582bcfdaa24d08c1ff0ee8443add0435b24b3fdf043d266e29d64736f6c63430008140033",
  "linkReferences": {},
  "deployedLinkReferences": {}
}