{
  "_format": "hh-sol-artifact-1",
  "contractName": "MerchandiseNFT",
  "sourceName": "contracts/MerchandiseNFT.sol",
  "abi": [
    {
      "inputs": [],
      "stateMutability": "nonpayable",
      "type": "constructor"
    },
    {
      "inputs": [
        {
          "internalType": "address",
          "name": "sender",
          "type": "address"
        },
        {
          "internalType": "uint256",
          "name": "tokenId",
          "type": "uint256"
        },
        {
          "internalType": "address",
          "name": "owner",
          "type": "address"
        }
      ],
      "name": "ERC721IncorrectOwner",
      "type": "error"
    },
    {
      "inputs": [
        {
          "internalType": "address",
          "name": "operator",
          "type": "address"
        },
        {
          "internalType": "uint256",
          "name": "tokenId",
          "type": "uint256"
        }
      ],
      "name": "ERC721InsufficientApproval",
      "type": "error"
    },
    {
      "inputs": [
        {
          "internalType": "address",
          "name": "approver",
          "type": "address"
        }
      ],
      "name": "ERC721InvalidApprover",
      "type": "error"
    },
    {
      "inputs": [
        {
          "internalType": "address",
          "name": "operator",
          "type": "address"
        }
      ],
      "name": "ERC721InvalidOperator",
      "type": "error"
    },
    {
      "inputs": [
        {
          "internalType": "address",
          "name": "owner",
          "type": "address"
        }
      ],
      "name": "ERC721InvalidOwner",
      "type": "error"
    },
    {
      "inputs": [
        {
          "internalType": "address",
          "name": "receiver",
          "type": "address"
        }
      ],
      "name": "ERC721InvalidReceiver",
      "type": "error"
    },
    {
      "inputs": [
        {
          "internalType": "address",
          "name": "sender",
          "type": "address"
        }
      ],
      "name": "ERC721InvalidSender",
      "type": "error"
    },
    {
      "inputs": [
        {
          "internalType": "uint256",
          "name": "tokenId",
          "type": "uint256"
        }
      ],
      "name": "ERC721NonexistentToken",
      "type": "error"
    },
    {
      "inputs": [
        {
          "internalType": "address",
          "name": "owner",
          "type": "address"
        }
      ],
      "name": "OwnableInvalidOwner",
      "type": "error"
    },
    {
      "inputs": [
        {
          "internalType": "address",
          "name": "account",
          "type": "address"
        }
      ],
      "name": "OwnableUnauthorizedAccount",
      "type": "error"
    },
    {
      "anonymous": false,
      "inputs": [
        {
          "indexed": true,
          "internalType": "address",
          "name": "owner",
          "type": "address"
        },
        {
          "indexed": true,
          "internalType": "address",
          "name": "approved",
          "type": "address"
        },
        {
          "indexed": true,
          "internalType": "uint256",
          "name": "tokenId",
          "type": "uint256"
        }
      ],
      "name": "Approval",
      "type": "event"
    },
    {
      "anonymous": false,
      "inputs": [
        {
          "indexed": true,
          "internalType": "address",
          "name": "owner",
          "type": "address"
        },
        {
          "indexed": true,
          "internalType": "address",
          "name": "operator",
          "type": "address"
        },
        {
          "indexed": false,
          "internalType": "bool",
          "name": "approved",
          "type": "bool"
        }
      ],
      "name": "ApprovalForAll",
      "type": "event"
    },
    {
      "anonymous": false,
      "inputs": [
        {
          "indexed": true,
          "internalType": "uint256",
          "name": "tokenId",
          "type": "uint256"
        },
        {
          "indexed": false,
          "internalType": "uint256",
          "name": "score",
          "type": "uint256"
        }
      ],
      "name": "AuthenticityVerified",
      "type": "event"
    },
    {
      "anonymous": false,
      "inputs": [
        {
          "indexed": false,
          "internalType": "uint256",
          "name": "_fromTokenId",
          "type": "uint256"
        },
        {
          "indexed": false,
          "internalType": "uint256",
          "name": "_toTokenId",
          "type": "uint256"
        }
      ],
      "name": "BatchMetadataUpdate",
      "type": "event"
    },
    {
      "anonymous": false,
      "inputs": [
        {
          "indexed": true,
          "internalType": "uint256",
          "name": "tokenId",
          "type": "uint256"
        },
        {
          "indexed": false,
          "internalType": "string",
          "name": "productId",
          "type": "string"
        },
        {
          "indexed": false,
          "internalType": "address",
          "name": "owner",
          "type": "address"
        },
        {
          "indexed": false,
          "internalType": "uint256",
          "name": "authenticityScore",
          "type": "uint256"
        }
      ],
      "name": "CertificateMinted",
      "type": "event"
    },
    {
      "anonymous": false,
      "inputs": [
        {
          "indexed": false,
          "internalType": "uint256",
          "name": "_tokenId",
          "type": "uint256"
        }
      ],
      "name": "MetadataUpdate",
      "type": "event"
    },
    {
      "anonymous": false,
      "inputs": [
        {
          "indexed": true,
          "internalType": "address",
          "name": "previousOwner",
          "type": "address"
        },
        {
          "indexed": true,
          "internalType": "address",
          "name": "newOwner",
          "type": "address"
        }
      ],
      "name": "OwnershipTransferred",
      "type": "event"
    },
    {
      "anonymous": false,
      "inputs": [
        {
          "indexed": true,
          "internalType": "uint256",
          "name": "tokenId",
          "type": "uint256"
        },
        {
          "indexed": false,
          "internalType": "string",
          "name": "productId",
          "type": "string"
        }
      ],
      "name": "ProductRecalled",
      "type": "event"
    },
    {
      "anonymous": false,
      "inputs": [
        {
          "indexed": true,
          "internalType": "address",
          "name": "from",
          "type": "address"
        },
        {
          "indexed": true,
          "internalType": "address",
          "name": "to",
          "type": "address"
        },
        {
          "indexed": true,
          "internalType": "uint256",
          "name": "tokenId",
          "type": "uint256"
        }
      ],
      "name": "Transfer",
      "type": "event"
    },
    {
      "inputs": [
        {
          "internalType": "address",
          "name": "to",
          "type": "address"
        },
        {
          "internalType": "uint256",
          "name": "tokenId",
          "type": "uint256"
        }
      ],
      "name": "approve",
      "outputs": [],
      "stateMutability": "nonpayable",
      "type": "function"
    },
    {
      "inputs": [
        {
          "internalType": "address",
          "name": "owner",
          "type": "address"
        }
      ],
      "name": "balanceOf",
      "outputs": [
        {
          "internalType": "uint256",
          "name": "",
          "type": "uint256"
        }
      ],
      "stateMutability": "view",
      "type": "function"
    },
    {
      "inputs": [
        {
          "internalType": "address[]",
          "name": "recipients",
          "type": "address[]"
        },
        {
          "internalType": "string[]",
          "name": "productIds",
          "type": "string[]"
        },
        {
          "internalType": "string[]",
          "name": "uris",
          "type": "string[]"
        },
        {
          "internalType": "uint256[]",
          "name": "scores",
          "type": "uint256[]"
        },
        {
          "internalType": "string[]",
          "name": "qrCodes",
          "type": "string[]"
        }
      ],
      "name": "batchMintCertificates",
      "outputs": [],
      "stateMutability": "nonpayable",
      "type": "function"
    },
    {
      "inputs": [
        {
          "internalType": "uint256",
          "name": "tokenId",
          "type": "uint256"
        }
      ],
      "name": "burn",
      "outputs": [],
      "stateMutability": "nonpayable",
      "type": "function"
    },
    {
      "inputs": [
        {
          "internalType": "uint256",
          "name": "",
          "type": "uint256"
        }
      ],
      "name": "certificates",
      "outputs": [
        {
          "internalType": "string",
          "name": "productId",
          "type": "string"
        },
        {
          "internalType": "uint256",
          "name": "authenticityScore",
          "type": "uint256"
        },
        {
          "internalType": "uint256",
          "name": "mintedAt",
          "type": "uint256"
        },
        {
          "internalType": "string",
          "name": "qrCode",
          "type": "string"
        },
        {
          "internalType": "bool",
          "name": "isRecalled",
          "type": "bool"
        }
      ],
      "stateMutability": "view",
      "type": "function"
    },
    {
      "inputs": [
        {
          "internalType": "uint256",
          "name": "tokenId",
          "type": "uint256"
        }
      ],
      "name": "getApproved",
      "outputs": [
        {
          "internalType": "address",
          "name": "",
          "type": "address"
        }
      ],
      "stateMutability": "view",
      "type": "function"
    },
    {
      "inputs": [
        {
          "internalType": "string",
          "name": "productId",
          "type": "string"
        }
      ],
      "name": "getCertificate",
      "outputs": [
        {
          "components": [
            {
              "internalType": "string",
              "name": "productId",
              "type": "string"
            },
            {
              "internalType": "uint256",
              "name": "authenticityScore",
              "type": "uint256"
            },
            {
              "internalType": "uint256",
              "name": "mintedAt",
              "type": "uint256"
            },
            {
              "internalType": "string",
              "name": "qrCode",
              "type": "string"
            },
            {
              "internalType": "bool",
              "name": "isRecalled",
              "type": "bool"
            }
          ],
          "internalType": "struct MerchandiseNFT.ProductCertificate",
          "name": "",
          "type": "tuple"
        }
      ],
      "stateMutability": "view",
      "type": "function"
    },
    {
      "inputs": [
        {
          "internalType": "address",
          "name": "owner",
          "type": "address"
        },
        {
          "internalType": "address",
          "name": "operator",
          "type": "address"
        }
      ],
      "name": "isApprovedForAll",
      "outputs": [
        {
          "internalType": "bool",
          "name": "",
          "type": "bool"
        }
      ],
      "stateMutability": "view",
      "type": "function"
    },
    {
      "inputs": [
        {
          "internalType": "address",
          "name": "to",
          "type": "address"
        },
        {
          "internalType": "string",
          "name": "productId",
          "type": "string"
        },
        {
          "internalType": "string",
          "name": "uri",
          "type": "string"
        },
        {
          "internalType": "uint256",
          "name": "authenticityScore",
          "type": "uint256"
        },
        {
          "internalType": "string",
          "name": "qrCode",
          "type": "string"
        }
      ],
      "name": "mintCertificate",
      "outputs": [
        {
          "internalType": "uint256",
          "name": "",
          "type": "uint256"
        }
      ],
      "stateMutability": "nonpayable",
      "type": "function"
    },
    {
      "inputs": [],
      "name": "name",
      "outputs": [
        {
          "internalType": "string",
          "name": "",
          "type": "string"
        }
      ],
      "stateMutability": "view",
      "type": "function"
    },
    {
      "inputs": [],
      "name": "owner",
      "outputs": [
        {
          "internalType": "address",
          "name": "",
          "type": "address"
        }
      ],
      "stateMutability": "view",
      "type": "function"
    },
    {
      "inputs": [
        {
          "internalType": "uint256",
          "name": "tokenId",
          "type": "uint256"
        }
      ],
      "name": "ownerOf",
      "outputs": [
        {
          "internalType": "address",
          "name": "",
          "type": "address"
        }
      ],
      "stateMutability": "view",
      "type": "function"
    },
    {
      "inputs": [
        {
          "internalType": "string",
          "name": "",
          "type": "string"
        }
      ],
      "name": "productToTokenId",
      "outputs": [
        {
          "internalType": "uint256",
          "name": "",
          "type": "uint256"
        }
      ],
      "stateMutability": "view",
      "type": "function"
    },
    {
      "inputs": [
        {
          "internalType": "uint256",
          "name": "tokenId",
          "type": "uint256"
        }
      ],
      "name": "recallProduct",
      "outputs": [],
      "stateMutability": "nonpayable",
      "type": "function"
    },
    {
      "inputs": [],
      "name": "renounceOwnership",
      "outputs": [],
      "stateMutability": "nonpayable",
      "type": "function"
    },
    {
      "inputs": [
        {
          "internalType": "address",
          "name": "from",
          "type": "address"
        },
        {
          "internalType": "address",
          "name": "to",
          "type": "address"
        },
        {
          "internalType": "uint256",
          "name": "tokenId",
          "type": "uint256"
        }
      ],
      "name": "safeTransferFrom",
      "outputs": [],
      "stateMutability": "nonpayable",
      "type": "function"
    },
    {
      "inputs": [
        {
          "internalType": "address",
          "name": "from",
          "type": "address"
        },
        {
          "internalType": "address",
          "name": "to",
          "type": "address"
        },
        {
          "internalType": "uint256",
          "name": "tokenId",
          "type": "uint256"
        },
        {
          "internalType": "bytes",
          "name": "data",
          "type": "bytes"
        }
      ],
      "name": "safeTransferFrom",
      "outputs": [],
      "stateMutability": "nonpayable",
      "type": "function"
    },
    {
      "inputs": [
        {
          "internalType": "address",
          "name": "operator",
          "type": "address"
        },
        {
          "internalType": "bool",
          "name": "approved",
          "type": "bool"
        }
      ],
      "name": "setApprovalForAll",
      "outputs": [],
      "stateMutability": "nonpayable",
      "type": "function"
    },
    {
      "inputs": [
        {
          "internalType": "bytes4",
          "name": "interfaceId",
          "type": "bytes4"
        }
      ],
      "name": "supportsInterface",
      "outputs": [
        {
          "internalType": "bool",
          "name": "",
          "type": "bool"
        }
      ],
      "stateMutability": "view",
      "type": "function"
    },
    {
      "inputs": [],
      "name": "symbol",
      "outputs": [
        {
          "internalType": "string",
          "name": "",
          "type": "string"
        }
      ],
      "stateMutability": "view",
      "type": "function"
    },
    {
      "inputs": [
        {
          "internalType": "uint256",
          "name": "tokenId",
          "type": "uint256"
        }
      ],
      "name": "tokenURI",
      "outputs": [
        {
          "internalType": "string",
          "name": "",
          "type": "string"
        }
      ],
      "stateMutability": "view",
      "type": "function"
    },
    {
      "inputs": [],
      "name": "totalSupply",
      "outputs": [
        {
          "internalType": "uint256",
          "name": "",
          "type": "uint256"
        }
      ],
      "stateMutability": "view",
      "type": "function"
    },
    {
      "inputs": [
        {
          "internalType": "address",
          "name": "from",
          "type": "address"
        },
        {
          "internalType": "address",
          "name": "to",
          "type": "address"
        },
        {
          "internalType": "uint256",
          "name": "tokenId",
          "type": "uint256"
        }
      ],
      "name": "transferFrom",
      "outputs": [],
      "stateMutability": "nonpayable",
      "type": "function"
    },
    {
      "inputs": [
        {
          "internalType": "address",
          "name": "newOwner",
          "type": "address"
        }
      ],
      "name": "transferOwnership",
      "outputs": [],
      "stateMutability": "nonpayable",
      "type": "function"
    },
    {
      "inputs": [
        {
          "internalType": "uint256",
          "name": "tokenId",
          "type": "uint256"
        },
        {
          "internalType": "uint256",
          "name": "newScore",
          "type": "uint256"
        }
      ],
      "name": "updateAuthenticityScore",
      "outputs": [],
      "stateMutability": "nonpayable",
      "type": "function"
    },
    {
      "inputs": [
        {
          "internalType": "uint256",
          "name": "tokenId",
          "type": "uint256"
        }
      ],
      "name": "verifyProduct",
      "outputs": [
        {
          "internalType": "bool",
          "name": "isAuthentic",
          "type": "bool"
        },
        {
          "internalType": "uint256",
          "name": "score",
          "type": "uint256"
        },
        {
          "internalType": "bool",
          "name": "isRecalled",
          "type": "bool"
        },
        {
          "internalType": "address",
          "name": "owner",
          "type": "address"
        }
      ],
      "stateMutability": "view",
      "type": "function"
    }
  ],
  "bytecode": "0x60806040523480156200001157600080fd5b50336040518060400160405280601a81526020017f4631204d65726368616e6469736520436572746966696361746500000000000081525060405180604001604052806006815260200165118c50d1549560d21b8152508160009081620000799190620001c8565b506001620000888282620001c8565b5050506001600160a01b038116620000ba57604051631e4fbdf760e01b81526000600482015260240160405180910390fd5b620000c581620000d1565b50600160085562000294565b600780546001600160a01b038381166001600160a01b0319831681179093556040519116919082907f8be0079c531659141344cd1fd0a4f28419497f9722a3daafe3b4186f6b6457e090600090a35050565b634e487b7160e01b600052604160045260246000fd5b600181811c908216806200014e57607f821691505b6020821081036200016f57634e487b7160e01b600052602260045260246000fd5b50919050565b601f821115620001c357600081815260208120601f850160051c810160208610156200019e5750805b601f850160051c820191505b81811015620001bf57828155600101620001aa565b5050505b505050565b81516001600160401b03811115620001e457620001e462000123565b620001fc81620001f5845462000139565b8462000175565b602080601f8311600181146200023457600084156200021b5750858301515b600019600386901b1c1916600185901b178555620001bf565b600085815260208120601f198616915b82811015620002655788860151825594840194600190910190840162000244565b5085821015620002845787850151600019600388901b60f8161c191681555b5050505050600190811b01905550565b6125dd80620002a46000396000f3fe608060405234801561001057600080fd5b506004361061018e5760003560e01c806370a08231116100de578063b88d4fde11610097578063cd7f8b1111610071578063cd7f8b1114610393578063e985e9c5146103be578063ed0f2e75146103d1578063f2fde38b146103f157600080fd5b8063b88d4fde1461035a578063b8edfc731461036d578063c87b56dd1461038057600080fd5b806370a0823114610300578063715018a6146103135780638da5cb5b1461031b57806395d89b411461032c578063a22cb46514610334578063ac20be671461034757600080fd5b806342842e0e1161014b578063542d2a9711610125578063542d2a97146102a35780636061bafb146102b65780636352211e146102c9578063663b3e22146102dc57600080fd5b806342842e0e1461023957806342966c681461024c578063524e84621461025f57600080fd5b806301ffc9a71461019357806306fdde03146101bb578063081812fc146101d0578063095ea7b3146101fb57806318160ddd1461021057806323b872dd14610226575b600080fd5b6101a66101a1366004611bc7565b610404565b60405190151581526020015b60405180910390f35b6101c3610415565b6040516101b29190611c34565b6101e36101de366004611c47565b6104a7565b6040516001600160a01b0390911681526020016101b2565b61020e610209366004611c7c565b6104d0565b005b6102186104df565b6040519081526020016101b2565b61020e610234366004611ca6565b6104f5565b61020e610247366004611ca6565b610585565b61020e61025a366004611c47565b6105a5565b61027261026d366004611c47565b6105b1565b6040805194151585526020850193909352901515918301919091526001600160a01b031660608201526080016101b2565b6102186102b1366004611da1565b610785565b61020e6102c4366004611e44565b61096d565b6101e36102d7366004611c47565b610a4e565b6102ef6102ea366004611c47565b610a59565b6040516101b2959493929190611e66565b61021861030e366004611eac565b610b9a565b61020e610be2565b6007546001600160a01b03166101e3565b6101c3610bf6565b61020e610342366004611ec7565b610c05565b61020e610355366004611c47565b610c10565b61020e610368366004611f03565b610ca6565b61020e61037b3660046120f0565b610cbe565b6101c361038e366004611c47565b610def565b6102186103a13660046121b5565b8051602081830181018051600a8252928201919093012091525481565b6101a66103cc3660046121ea565b610dfa565b6103e46103df3660046121b5565b610e28565b6040516101b2919061221d565b61020e6103ff366004611eac565b611037565b600061040f82611075565b92915050565b60606000805461042490612283565b80601f016020809104026020016040519081016040528092919081815260200182805461045090612283565b801561049d5780601f106104725761010080835404028352916020019161049d565b820191906000526020600020905b81548152906001019060200180831161048057829003601f168201915b5050505050905090565b60006104b28261109a565b506000828152600460205260409020546001600160a01b031661040f565b6104db8282336110d3565b5050565b600060016008546104f091906122d3565b905090565b6001600160a01b03821661052457604051633250574960e11b8152600060048201526024015b60405180910390fd5b60006105318383336110e0565b9050836001600160a01b0316816001600160a01b03161461057f576040516364283d7b60e01b81526001600160a01b038086166004830152602482018490528216604482015260640161051b565b50505050565b6105a083838360405180602001604052806000815250610ca6565b505050565b6104db600082336110e0565b6000808080806105d6866000908152600260205260409020546001600160a01b031690565b6001600160a01b0316036105fc5760405162461bcd60e51b815260040161051b906122e6565b600085815260096020526040808220815160a0810190925280548290829061062390612283565b80601f016020809104026020016040519081016040528092919081815260200182805461064f90612283565b801561069c5780601f106106715761010080835404028352916020019161069c565b820191906000526020600020905b81548152906001019060200180831161067f57829003601f168201915b5050505050815260200160018201548152602001600282015481526020016003820180546106c990612283565b80601f01602080910402602001604051908101604052809291908181526020018280546106f590612283565b80156107425780601f1061071757610100808354040283529160200191610742565b820191906000526020600020905b81548152906001019060200180831161072557829003601f168201915b50505091835250506004919091015460ff1615156020918201528101516080820151604682101597509095509350905061077b86610a4e565b9150509193509193565b600061078f61122e565b60648311156107e05760405162461bcd60e51b815260206004820152601b60248201527f53636f7265206d757374206265206265747765656e20302d3130300000000000604482015260640161051b565b600a856040516107f09190612314565b90815260200160405180910390205460001461084e5760405162461bcd60e51b815260206004820152601f60248201527f50726f6475637420616c72656164792068617320636572746966696361746500604482015260640161051b565b60088054908190600061086083612330565b919050555061086f878261125b565b6108798186611275565b6040805160a0810182528781526020808201879052428284015260608201869052600060808301819052848152600990915291909120815181906108bd908261238f565b506020820151600182015560408201516002820155606082015160038201906108e6908261238f565b50608091909101516004909101805460ff19169115159190911790556040518190600a90610915908990612314565b908152602001604051809103902081905550807f0d97de7320ba6149d59a10fca060002398fed75ba53da922bcbe83a5f30babd587898760405161095b9392919061244f565b60405180910390a29695505050505050565b61097561122e565b6000828152600260205260409020546001600160a01b03166109a95760405162461bcd60e51b815260040161051b906122e6565b60648111156109fa5760405162461bcd60e51b815260206004820152601b60248201527f53636f7265206d757374206265206265747765656e20302d3130300000000000604482015260640161051b565b600082815260096020526040908190206001018290555182907faa192c8724ffb9ee938fe8b0721a80b04f874e340cf2c50f3b2280b5385c3e0b90610a429084815260200190565b60405180910390a25050565b600061040f8261109a565b600960205260009081526040902080548190610a7490612283565b80601f0160208091040260200160405190810160405280929190818152602001828054610aa090612283565b8015610aed5780601f10610ac257610100808354040283529160200191610aed565b820191906000526020600020905b815481529060010190602001808311610ad057829003601f168201915b505050505090806001015490806002015490806003018054610b0e90612283565b80601f0160208091040260200160405190810160405280929190818152602001828054610b3a90612283565b8015610b875780601f10610b5c57610100808354040283529160200191610b87565b820191906000526020600020905b815481529060010190602001808311610b6a57829003601f168201915b5050506004909301549192505060ff1685565b60006001600160a01b038216610bc6576040516322718ad960e21b81526000600482015260240161051b565b506001600160a01b031660009081526003602052604090205490565b610bea61122e565b610bf460006112c5565b565b60606001805461042490612283565b6104db338383611317565b610c1861122e565b6000818152600260205260409020546001600160a01b0316610c4c5760405162461bcd60e51b815260040161051b906122e6565b6000818152600960205260409081902060048101805460ff19166001179055905182917fcf945375036ee1ff64a8885b9c36844ac503b07ad7b0b3b78d023eb0a4cc623c91610c9b919061247d565b60405180910390a250565b610cb18484846104f5565b61057f33858585856113b6565b610cc661122e565b83518551148015610cd8575082518451145b8015610ce5575081518351145b8015610cf2575080518251145b610d3e5760405162461bcd60e51b815260206004820152601c60248201527f417272617973206d75737420686176652073616d65206c656e67746800000000604482015260640161051b565b60005b8551811015610de757610dd4868281518110610d5f57610d5f612508565b6020026020010151868381518110610d7957610d79612508565b6020026020010151868481518110610d9357610d93612508565b6020026020010151868581518110610dad57610dad612508565b6020026020010151868681518110610dc757610dc7612508565b6020026020010151610785565b5080610ddf81612330565b915050610d41565b505050505050565b606061040f826114df565b6001600160a01b03918216600090815260056020908152604080832093909416825291909152205460ff1690565b610e5c6040518060a00160405280606081526020016000815260200160008152602001606081526020016000151581525090565b6000600a83604051610e6e9190612314565b908152602001604051809103902054905080600003610ecf5760405162461bcd60e51b815260206004820152601a60248201527f50726f6475637420686173206e6f206365727469666963617465000000000000604482015260640161051b565b60008181526009602052604090819020815160a08101909252805482908290610ef790612283565b80601f0160208091040260200160405190810160405280929190818152602001828054610f2390612283565b8015610f705780601f10610f4557610100808354040283529160200191610f70565b820191906000526020600020905b815481529060010190602001808311610f5357829003601f168201915b505050505081526020016001820154815260200160028201548152602001600382018054610f9d90612283565b80601f0160208091040260200160405190810160405280929190818152602001828054610fc990612283565b80156110165780601f10610feb57610100808354040283529160200191611016565b820191906000526020600020905b815481529060010190602001808311610ff957829003601f168201915b50505091835250506004919091015460ff1615156020909101529392505050565b61103f61122e565b6001600160a01b03811661106957604051631e4fbdf760e01b81526000600482015260240161051b565b611072816112c5565b50565b60006001600160e01b03198216632483248360e11b148061040f575061040f826115f0565b6000818152600260205260408120546001600160a01b03168061040f57604051637e27328960e01b81526004810184905260240161051b565b6105a08383836001611640565b6000828152600260205260408120546001600160a01b0390811690851615801561111257506001600160a01b03811615155b1561121a576000848152600960205260408120805461113090612283565b80601f016020809104026020016040519081016040528092919081815260200182805461115c90612283565b80156111a95780601f1061117e576101008083540402835291602001916111a9565b820191906000526020600020905b81548152906001019060200180831161118c57829003601f168201915b50505050509050600a816040516111c09190612314565b908152604080516020928190038301902060009081905587815260099092528120906111ec8282611b63565b6001820160009055600282016000905560038201600061120c9190611b63565b50600401805460ff19169055505b611225858585611746565b95945050505050565b6007546001600160a01b03163314610bf45760405163118cdaa760e01b815233600482015260240161051b565b6104db82826040518060200160405280600081525061183f565b600082815260066020526040902061128d828261238f565b506040518281527ff8e1a15aba9398e019f0b49df1a4fde98ee17ae345cb5f6b5e2c27f5033e8ce79060200160405180910390a15050565b600780546001600160a01b038381166001600160a01b0319831681179093556040519116919082907f8be0079c531659141344cd1fd0a4f28419497f9722a3daafe3b4186f6b6457e090600090a35050565b6001600160a01b03821661134957604051630b61174360e31b81526001600160a01b038316600482015260240161051b565b6001600160a01b03838116600081815260056020908152604080832094871680845294825291829020805460ff191686151590811790915591519182527f17307eab39ab6107e8899845ad3d59bd9653f200f220920489ca2b5937696c31910160405180910390a3505050565b6001600160a01b0383163b156114d857604051630a85bd0160e11b81526001600160a01b0384169063150b7a02906113f890889088908790879060040161251e565b6020604051808303816000875af1925050508015611433575060408051601f3d908101601f191682019092526114309181019061255b565b60015b61149c573d808015611461576040519150601f19603f3d011682016040523d82523d6000602084013e611466565b606091505b50805160000361149457604051633250574960e11b81526001600160a01b038516600482015260240161051b565b805160208201fd5b6001600160e01b03198116630a85bd0160e11b14610de757604051633250574960e11b81526001600160a01b038516600482015260240161051b565b5050505050565b60606114ea8261109a565b506000828152600660205260408120805461150490612283565b80601f016020809104026020016040519081016040528092919081815260200182805461153090612283565b801561157d5780601f106115525761010080835404028352916020019161157d565b820191906000526020600020905b81548152906001019060200180831161156057829003601f168201915b50505050509050600061159b60408051602081019091526000815290565b905080516000036115ad575092915050565b8151156115df5780826040516020016115c7929190612578565b60405160208183030381529060405292505050919050565b6115e884611857565b949350505050565b60006001600160e01b031982166380ac58cd60e01b148061162157506001600160e01b03198216635b5e139f60e01b145b8061040f57506301ffc9a760e01b6001600160e01b031983161461040f565b808061165457506001600160a01b03821615155b156117165760006116648461109a565b90506001600160a01b038316158015906116905750826001600160a01b0316816001600160a01b031614155b80156116a357506116a18184610dfa565b155b156116cc5760405163a9fbf51f60e01b81526001600160a01b038416600482015260240161051b565b81156117145783856001600160a01b0316826001600160a01b03167f8c5be1e5ebec7d5bd14f71427d1e84f3dd0314c0f7b2291e5b200ac8c7c3b92560405160405180910390a45b505b5050600090815260046020526040902080546001600160a01b0319166001600160a01b0392909216919091179055565b6000828152600260205260408120546001600160a01b0390811690831615611773576117738184866118cc565b6001600160a01b038116156117b157611790600085600080611640565b6001600160a01b038116600090815260036020526040902080546000190190555b6001600160a01b038516156117e0576001600160a01b0385166000908152600360205260409020805460010190555b60008481526002602052604080822080546001600160a01b0319166001600160a01b0389811691821790925591518793918516917fddf252ad1be2c89b69c2b068fc378daa952ba7f163c4a11628f55a4df523b3ef91a4949350505050565b6118498383611930565b6105a03360008585856113b6565b60606118628261109a565b50600061187a60408051602081019091526000815290565b9050600081511161189a57604051806020016040528060008152506118c5565b806118a484611995565b6040516020016118b5929190612578565b6040516020818303038152906040525b9392505050565b6118d7838383611a28565b6105a0576001600160a01b03831661190557604051637e27328960e01b81526004810182905260240161051b565b60405163177e802f60e01b81526001600160a01b03831660048201526024810182905260440161051b565b6001600160a01b03821661195a57604051633250574960e11b81526000600482015260240161051b565b6000611968838360006110e0565b90506001600160a01b038116156105a0576040516339e3563760e11b81526000600482015260240161051b565b606060006119a283611a8b565b600101905060008167ffffffffffffffff8111156119c2576119c2611ce2565b6040519080825280601f01601f1916602001820160405280156119ec576020820181803683370190505b5090508181016020015b600019016f181899199a1a9b1b9c1cb0b131b232b360811b600a86061a8153600a85049450846119f657509392505050565b60006001600160a01b038316158015906115e85750826001600160a01b0316846001600160a01b03161480611a625750611a628484610dfa565b806115e85750506000908152600460205260409020546001600160a01b03908116911614919050565b60008072184f03e93ff9f4daa797ed6e38ed64bf6a1f0160401b8310611aca5772184f03e93ff9f4daa797ed6e38ed64bf6a1f0160401b830492506040015b6d04ee2d6d415b85acef81000000008310611af6576d04ee2d6d415b85acef8100000000830492506020015b662386f26fc100008310611b1457662386f26fc10000830492506010015b6305f5e1008310611b2c576305f5e100830492506008015b6127108310611b4057612710830492506004015b60648310611b52576064830492506002015b600a831061040f5760010192915050565b508054611b6f90612283565b6000825580601f10611b7f575050565b601f01602090049060005260206000209081019061107291905b80821115611bad5760008155600101611b99565b5090565b6001600160e01b03198116811461107257600080fd5b600060208284031215611bd957600080fd5b81356118c581611bb1565b60005b83811015611bff578181015183820152602001611be7565b50506000910152565b60008151808452611c20816020860160208601611be4565b601f01601f19169290920160200192915050565b6020815260006118c56020830184611c08565b600060208284031215611c5957600080fd5b5035919050565b80356001600160a01b0381168114611c7757600080fd5b919050565b60008060408385031215611c8f57600080fd5b611c9883611c60565b946020939093013593505050565b600080600060608486031215611cbb57600080fd5b611cc484611c60565b9250611cd260208501611c60565b9150604084013590509250925092565b634e487b7160e01b600052604160045260246000fd5b604051601f8201601f1916810167ffffffffffffffff81118282101715611d2157611d21611ce2565b604052919050565b600067ffffffffffffffff831115611d4357611d43611ce2565b611d56601f8401601f1916602001611cf8565b9050828152838383011115611d6a57600080fd5b828260208301376000602084830101529392505050565b600082601f830112611d9257600080fd5b6118c583833560208501611d29565b600080600080600060a08688031215611db957600080fd5b611dc286611c60565b9450602086013567ffffffffffffffff80821115611ddf57600080fd5b611deb89838a01611d81565b95506040880135915080821115611e0157600080fd5b611e0d89838a01611d81565b9450606088013593506080880135915080821115611e2a57600080fd5b50611e3788828901611d81565b9150509295509295909350565b60008060408385031215611e5757600080fd5b50508035926020909101359150565b60a081526000611e7960a0830188611c08565b8660208401528560408401528281036060840152611e978186611c08565b91505082151560808301529695505050505050565b600060208284031215611ebe57600080fd5b6118c582611c60565b60008060408385031215611eda57600080fd5b611ee383611c60565b915060208301358015158114611ef857600080fd5b809150509250929050565b60008060008060808587031215611f1957600080fd5b611f2285611c60565b9350611f3060208601611c60565b925060408501359150606085013567ffffffffffffffff811115611f5357600080fd5b8501601f81018713611f6457600080fd5b611f7387823560208401611d29565b91505092959194509250565b600067ffffffffffffffff821115611f9957611f99611ce2565b5060051b60200190565b600082601f830112611fb457600080fd5b81356020611fc9611fc483611f7f565b611cf8565b82815260059290921b84018101918181019086841115611fe857600080fd5b8286015b8481101561200a57611ffd81611c60565b8352918301918301611fec565b509695505050505050565b600082601f83011261202657600080fd5b81356020612036611fc483611f7f565b82815260059290921b8401810191818101908684111561205557600080fd5b8286015b8481101561200a57803567ffffffffffffffff8111156120795760008081fd5b6120878986838b0101611d81565b845250918301918301612059565b600082601f8301126120a657600080fd5b813560206120b6611fc483611f7f565b82815260059290921b840181019181810190868411156120d557600080fd5b8286015b8481101561200a57803583529183019183016120d9565b600080600080600060a0868803121561210857600080fd5b853567ffffffffffffffff8082111561212057600080fd5b61212c89838a01611fa3565b9650602088013591508082111561214257600080fd5b61214e89838a01612015565b9550604088013591508082111561216457600080fd5b61217089838a01612015565b9450606088013591508082111561218657600080fd5b61219289838a01612095565b935060808801359150808211156121a857600080fd5b50611e3788828901612015565b6000602082840312156121c757600080fd5b813567ffffffffffffffff8111156121de57600080fd5b6115e884828501611d81565b600080604083850312156121fd57600080fd5b61220683611c60565b915061221460208401611c60565b90509250929050565b602081526000825160a0602084015261223960c0840182611c08565b905060208401516040840152604084015160608401526060840151601f1984830301608085015261226a8282611c08565b9150506080840151151560a08401528091505092915050565b600181811c9082168061229757607f821691505b6020821081036122b757634e487b7160e01b600052602260045260246000fd5b50919050565b634e487b7160e01b600052601160045260246000fd5b8181038181111561040f5761040f6122bd565b602080825260149082015273151bdad95b88191bd95cc81b9bdd08195e1a5cdd60621b604082015260600190565b60008251612326818460208701611be4565b9190910192915050565b600060018201612342576123426122bd565b5060010190565b601f8211156105a057600081815260208120601f850160051c810160208610156123705750805b601f850160051c820191505b81811015610de75782815560010161237c565b815167ffffffffffffffff8111156123a9576123a9611ce2565b6123bd816123b78454612283565b84612349565b602080601f8311600181146123f257600084156123da5750858301515b600019600386901b1c1916600185901b178555610de7565b600085815260208120601f198616915b8281101561242157888601518255948401946001909101908401612402565b508582101561243f5787850151600019600388901b60f8161c191681555b5050505050600190811b01905550565b6060815260006124626060830186611c08565b6001600160a01b039490941660208301525060400152919050565b600060208083526000845461249181612283565b808487015260406001808416600081146124b257600181146124cc576124fa565b60ff1985168984015283151560051b8901830195506124fa565b896000528660002060005b858110156124f25781548b82018601529083019088016124d7565b8a0184019650505b509398975050505050505050565b634e487b7160e01b600052603260045260246000fd5b6001600160a01b038581168252841660208201526040810183905260806060820181905260009061255190830184611c08565b9695505050505050565b60006020828403121561256d57600080fd5b81516118c581611bb1565b6000835161258a818460208801611be4565b83519083019061259e818360208801611be4565b0194935050505056fea2646970667358221220ec3bc8859680b3ec21eb4da6d69c2a92eead0cc94f92b6c4db88f21c19af959964736f6c63430008140033",
  "linkReferences": {},
  "deployedLinkReferences": {}
}